:020000040800F2
:1000000010040020610F0008190F00081B0F0008E2
:100010001D0F00081F0F0008210F0008000000003E
:10002000000000000000000000000000230F000896
:10003000250F000800000000270F0008290F000806
:100040008D0F0008910F0008950F0008990F000808
:100050009D0F0008A10F0008A50F0008A90F0008B8
:10006000AD0F0008B10F0008B50F0008B90F000868
:10007000BD0F0008C10F0008C50F0008C90F000818
:10008000CD0F0008D10F0008D50F0008D90F0008C8
:10009000DD0F0008E10F0008E50F0008E90F000878
:1000A000ED0F0008F10F0008F50F0008F90F000828
:1000B000FD0F0008011000080510000809100008D5
:1000C0000D10000811100008151000081910000884
:1000D0001D10000821100008251000082910000834
:1000E0002D100008311000083510000839100008E4
:1000F0003D10000841100008451000084910000894
:100100004D10000800000000000000005110000821
:1001100055100008591000085D1000086110000813
:1001200065100008691000086D10000871100008C3
:1001300075100008791000080000000000000000A1
:100140007D100008811000088510000800000000E4
:10015000000000000000000000000000000000009F
:10016000891000088D1000089110000895100008F3
:10017000991000089D100008A1100008A5100008A3
:10018000A9100008AD1000080000000000000000E9
:10019000B110000870B582B00400002C01D101201C
:1001A000B7E32078C00740F1E380DFF8D0090068AA
:1001B00010F00C0004280ED0DFF8C009006810F021
:1001C0000C00082831D1DFF8B409006810F4C03001
:1001D000B0F5803F29D14FF48040B0FA80F050F064
:1001E0002000C0B24009C0B2012803D1DFF888095D
:1001F00000680AE04FF48040B0FA80F04FF480408D
:10020000B0FA80F0DFF8880900684FF48041B1FA55
:1002100081F111F01F01C840C00740F1A98060685A
:10022000002840F0A580012073E36068B0F5803FAE
:1002300008D1DFF84409006850F48030DFF838193D
:10024000086038E06068002810D1DFF82C090068E9
:1002500030F48030DFF820190860DFF81C090068EE
:1002600030F48020DFF81019086024E06068B0F5F1
:10027000A02F10D1DFF80009006850F48020DFF8CB
:10028000F8180860DFF8F008006850F48030DFF8F4
:10029000E81808600FE0DFF8E008006830F480300C
:1002A000DFF8D4180860DFF8D008006830F4802048
:1002B000DFF8C4180860606800282CD000F0B3FC98
:1002C00005004FF48040B0FA80F050F02000C0B23A
:1002D0004009C0B2012803D1DFF89C0800680AE099
:1002E0004FF48040B0FA80F04FF48040B0FA80F0D4
:1002F000DFF89C0800684FF48041B1FA81F111F0F9
:100300001F01C840C00733D400F08DFC401B652896
:10031000D7D30320FDE200F086FC05004FF48040B7
:10032000B0FA80F050F02000C0B24009C0B20128FD
:1003300003D1DFF8440800680AE04FF48040B0FAC7
:1003400080F04FF48040B0FA80F0DFF84408006895
:100350004FF48041B1FA81F111F01F01C840C0078C
:1003600006D500F060FC401B6528D7D30320D0E2FF
:10037000207880074CD5DFF80408006810F00C0FD7
:100380000ED0DFF8F807006810F00C00082873D1D1
:10039000DFF8E807006810F4C030B0F5004F6BD10B
:1003A0005FF08040B0FA80F050F02000C0B2400909
:1003B000C0B2012803D1DFF8C00700680AE05FF08F
:1003C0008040B0FA80F05FF08040B0FA80F0DFF853
:1003D000C00700685FF08041B1FA81F111F01F01A0
:1003E000C840C00704D5E068012801D0012090E290
:1003F000DFF8840700685FF0F851B1FA81F130F05E
:10040000F800226912FA01F10843DFF86C1708605E
:100410002078000740F1DC806069002800F0AD80A2
:1004200001205FF00041B1FA81F1DFF8602742F866
:10043000210000F0F8FB05005FF08040B0FA80F08A
:100440005FF08040B0FA80F05FF08040B0FA80F05A
:10045000DFF83C0700685FF08041B1FA81F111F0EC
:100460001F01C840C00700F1B38000F0DCFB401B57
:100470000328E1D303204CE2E068002846D00120A5
:100480005FF00041B1FA81F1DFF8082742F821005E
:1004900000F0C9FB05005FF08040B0FA80F050F03A
:1004A0002000C0B24009C0B2012803D1DFF8C8065D
:1004B00000680AE05FF08040B0FA80F05FF08040B2
:1004C000B0FA80F0DFF8C80600685FF08041B1FA4A
:1004D00081F111F01F01C840C00706D400F0A3FB52
:1004E000401B0328D7D3032013E2DFF88C060068F3
:1004F0005FF0F851B1FA81F130F0F800226912FA98
:1005000001F10843DFF87016086081E700205FF012
:100510000041B1FA81F1DFF87C2642F8210000F0B9
:1005200082FB05005FF08040B0FA80F050F02000C0
:10053000C0B24009C0B2012803D1DFF83C06006810
:100540000AE05FF08040B0FA80F05FF08040B0FADF
:1005500080F0DFF83C0600685FF08041B1FA81F17D
:1005600011F01F01C840C0077FF552AF00F05BFBE0
:10057000401B0328D6D30320CBE100205FF00041CD
:10058000B1FA81F1DFF8042642F8210000F04BFBBC
:1005900005005FF08040B0FA80F05FF08040B0FA74
:1005A00080F05FF08040B0FA80F0DFF8E40500688A
:1005B0005FF08041B1FA81F111F01F01C840C0071E
:1005C00006D500F030FB401B0328E2D30320A0E156
:1005D0002078400740F1E2800026DFF8BC05006883
:1005E000C0000FD4DFF8B005006850F08050DFF88D
:1005F000A8150860DFF8A005006810F08050009092
:1006000000980126DFF894050068C00516D4DFF8CD
:100610008C05006850F48070DFF88015086000F0E9
:1006200002FB0500DFF874050068C00506D400F081
:10063000FAFA401B6528F5D303206AE1A068012877
:1006400008D1DFF85C05006850F00100DFF85015B4
:10065000086037E0A068002810D1DFF84405006882
:1006600040084000DFF838150860DFF834050068FE
:1006700030F00400DFF82815086023E0A0680528A2
:1006800010D1DFF81C05006850F00400DFF81015E9
:100690000860DFF80C05006850F00100DFF8001575
:1006A00008600FE0DFF8F804006840084000DFF859
:1006B000F0140860DFF8E804006830F00400DFF8A8
:1006C000E0140860A06800282ED000F0ACFA050005
:1006D0005FF08040B0FA80F05FF08040B0FA80F0C8
:1006E00050F04000C0B24009C0B2022803D1DFF888
:1006F000B004006806E05FF08040B0FA80F0DFF8F8
:10070000900400685FF08041B1FA81F111F01F019F
:10071000C840C00737D400F086FA401B41F2893147
:100720008842D5D30320F4E000F07DFA05005FF0A5
:100730008040B0FA80F05FF08040B0FA80F050F076
:100740004000C0B24009C0B2022803D1DFF8500413
:10075000006806E05FF08040B0FA80F0DFF8300417
:1007600000685FF08041B1FA81F111F01F01C840CB
:10077000C00708D500F057FA401B41F28931884282
:10078000D5D30320C5E0F6B2012E07D1DFF8080467
:10079000006830F08050DFF800140860A06900287D
:1007A00000F0B680DFF8D403006810F00C000828D1
:1007B00000F0AC80A069022877D100208021B1FA36
:1007C00081F1DFF8D02342F8210000F02CFA050077
:1007D0004020B0FA80F050F02000C0B24009C0B212
:1007E000012803D1DFF89003006808E04020B0FA48
:1007F00080F04020B0FA80F0DFF8940300684021D8
:10080000B1FA81F111F01F01C840C00706D500F010
:100810000AFA401B0328DBD303207AE0DFF86803E1
:10082000006800090001616A0843DFF85C13086092
:10083000DFF84803006830F47610216A0843E16964
:100840000843DFF83813086001208021B1FA81F1F4
:10085000DFF8402342F8210000F0E5F905004020D0
:10086000B0FA80F050F02000C0B24009C0B20128B8
:1008700003D1DFF80403006808E04020B0FA80F0FC
:100880004020B0FA80F0DFF8080300684021B1FA98
:1008900081F111F01F01C840C00739D400F0C3F93D
:1008A000401B0328DBD3032033E000208021B1FA72
:1008B00081F1DFF8E02242F8210000F0B4F90500F0
:1008C0004020B0FA80F050F02000C0B24009C0B221
:1008D000012803D1DFF8A002006808E04020B0FA48
:1008E00080F04020B0FA80F0DFF8A40200684021D8
:1008F000B1FA81F111F01F01C840C00708D500F01E
:1009000092F9401B0328DBD3032002E0012000E022
:10091000002076BD70B504000D000026002C01D12A
:100920000120F4E0DFF87C02006810F00700A84224
:1009300011D2DFF870020068C008C0002843DFF859
:1009400064120860DFF85C02006810F00700A8423B
:1009500001D00120DBE02078800709D5DFF81C02F8
:10096000006830F0F000A1680843DFF8101208605A
:100970002078C00740F18B806068012824D14FF4B3
:100980008040B0FA80F050F02000C0B24009C0B200
:10099000012803D1DFF8E00100680AE04FF480404D
:1009A000B0FA80F04FF48040B0FA80F0DFF8E00158
:1009B00000684FF48041B1FA81F111F01F01C84085
:1009C000C00748D40120A2E06068022820D140205E
:1009D000B0FA80F050F02000C0B24009C0B2012847
:1009E00003D1DFF89401006808E04020B0FA80F0FD
:1009F0004020B0FA80F0DFF8980100684021B1FA99
:100A000081F111F01F01C840C00724D401207EE00D
:100A10005FF08040B0FA80F050F02000C0B2400992
:100A2000C0B2012802D15448006809E05FF080405C
:100A3000B0FA80F05FF08040B0FA80F0544800686F
:100A40005FF08041B1FA81F111F01F01C840C00789
:100A500001D401205BE0494800688008800061689B
:100A600008434649086000F0DEF806004348006885
:100A700010F00C006168B0EB810F08D000F0D3F8E3
:100A8000801B41F289318842F0D303203FE0454882
:100A9000006810F0070085420ED242480068C00886
:100AA000C00028433F4908603E48006810F0070036
:100AB000A84201D001202AE02078400707D52F481E
:100AC000006830F4E060E16808432C490860207851
:100AD000000708D52948006830F46050216950EAC1
:100AE000C1002649086000F013F8244909685FF046
:100AF0007062B2FA82F22C4B11F0F001D140C95C65
:100B0000C840204908600F2000F065F8002070BD43
:100B100010B40020002100200022002017480068A7
:100B200010F00C01042902D0082902D021E0144859
:100B300020E04FF47051B1FA81F11C4A10F47013A7
:100B4000CB409A5C104909685FF07043B3FA83F3B5
:100B5000174C11F00F01D940095DC00304D50848B6
:100B6000B0FBF1F0504303E00548B0FBF1F0504317
:100B700000E0034810BC704700100240041002401F
:100B800000127A00040000202C100240800442422F
:100B900024100240000042421C100240007000403D
:100BA0002010024000200240500F0008300F0008C3
:100BB000400F000880B51D48006850F010001B4928
:100BC0000860032000F096F80F2000F004F800F011
:100BD000B9F8002002BD10B504004FF47A70144932
:100BE0000978B0FBF1F013490968B1FBF0F000F0AF
:100BF00096F8002801D001200CE0102C09D2002228
:100C000021005FF0FF3000F079F80B48046000200D
:100C100000E0012010BD0948006805490978401826
:100C20000649086070470548006870470020024088
:100C30000C0000200400002000000020080000201C
:100C400010F00701384800684FF6FF021040374A9D
:100C500052EA01210843344908607047324800686D
:100C6000C0F30220704740B2002808D50901304A7D
:100C700040B210F00F00801800F8041C03E00901D6
:100C80002C4A40B28154704710B410F00700D0F1E4
:100C90000703052B01D3042301E0D0F10703041D52
:100CA000072C01D2002000E0C01E012414FA03F337
:100CB0005B1E19408140012313FA00F0401E1040D2
:100CC000084310BC704780B5411EB1F1807F01D34D
:100CD00001200EE0401E184908600F215FF0FF3030
:100CE000FFF7C1FF0020154908600720144908607C
:100CF000002002BD80B5FFF7A3FF01BD70B5040061
:100D00000D0016000020FFF7A9FF32002900FFF7B1
:100D1000BBFF0100200040B2FFF7A5FF70BD80B50A
:100D2000FFF7D1FF02BD00000CED00E00000FA0566
:100D300018ED00E000E400E014E000E018E000E05E
:100D400010E000E0704700001B48006850F470009D
:100D5000194908601948006850F0010017490860F7
:100D6000174800681749084015490860134800688B
:100D700015490840114908601048006830F4802087
:100D80000E4908600E48006830F4FE000C49086007
:100D90000E480068000900010C4908600C48006812
:100DA0000C4908400A49086000200B4908605FF0C0
:100DB00000600A490860704788ED00E000100240BA
:100DC000041002400CC07FF8FFFFF6FE2C1002401A
:100DD00030100240CCFC00FF0810024008ED00E09B
:100DE00080B5FFF7E7FE00F001F8FEE700B58FB031
:100DF0000020059002200B904FF400400C90012041
:100E00000E905FF460100D901020099005A8FFF778
:100E1000C1F9002801D000F015F80F200090022041
:100E20000190002002904FF4806003900020049015
:100E300002216846FFF76EFD002801D000F002F89D
:100E40000FB000BDFEE710B450F8041B79B1026882
:100E5000436812180830DC0744BFA9F10104E31805
:100E600052F8044B43F8044B091FF9D1ECE710BCCE
:100E70007047000010B5074979441831064C7C448E
:100E8000163404E00A68081D511888470146A1423B
:100E9000F8D110BD2C0000003C0000004EF6885137
:100EA000CEF20001086840F470000860BFF34F8F75
:100EB000BFF36F8F4FF00070E1EE100A7047000033
:100EC00087FFFFFF10000000A800000000000020C6
:100ED0000000000000F00BF8002801D0FFF7CAFF67
:100EE0000020C046C046FFF77BFF00F002F801205B
:100EF000704700F001B800000746384600F002F8DD
:100F0000FBE7000080B5C046C046024A1100182029
:100F1000ABBEFBE7260002007047FEE7FEE7FEE7F8
:100F2000FEE770477047704780B5FFF774FE01BD5C
:100F300002030405060708090A0B0C0D0E0F10101A
:100F40000102030405060708090A0B0C0D0E0F1019
:100F50000000000000000000010203040607080969
:100F60000148804701480047490D0008810F0008EB
:100F70001000000000127A000000000001000000D4
:100F8000C046C046FFF78AFFFFF7A4FFFFF7FEBF8A
:100F9000FFF7FEBFFFF7FEBFFFF7FEBFFFF7FEBF85
:100FA000FFF7FEBFFFF7FEBFFFF7FEBFFFF7FEBF75
:100FB000FFF7FEBFFFF7FEBFFFF7FEBFFFF7FEBF65
:100FC000FFF7FEBFFFF7FEBFFFF7FEBFFFF7FEBF55
:100FD000FFF7FEBFFFF7FEBFFFF7FEBFFFF7FEBF45
:100FE000FFF7FEBFFFF7FEBFFFF7FEBFFFF7FEBF35
:100FF000FFF7FEBFFFF7FEBFFFF7FEBFFFF7FEBF25
:10100000FFF7FEBFFFF7FEBFFFF7FEBFFFF7FEBF14
:10101000FFF7FEBFFFF7FEBFFFF7FEBFFFF7FEBF04
:10102000FFF7FEBFFFF7FEBFFFF7FEBFFFF7FEBFF4
:10103000FFF7FEBFFFF7FEBFFFF7FEBFFFF7FEBFE4
:10104000FFF7FEBFFFF7FEBFFFF7FEBFFFF7FEBFD4
:10105000FFF7FEBFFFF7FEBFFFF7FEBFFFF7FEBFC4
:10106000FFF7FEBFFFF7FEBFFFF7FEBFFFF7FEBFB4
:10107000FFF7FEBFFFF7FEBFFFF7FEBFFFF7FEBFA4
:10108000FFF7FEBFFFF7FEBFFFF7FEBFFFF7FEBF94
:10109000FFF7FEBFFFF7FEBFFFF7FEBFFFF7FEBF84
:1010A000FFF7FEBFFFF7FEBFFFF7FEBFFFF7FEBF74
:0410B000FFF7FEBF89
:0400000508000F815F
:00000001FF
